:020000040800F2
:1000000000A00020BD560108EB0001089D19010861
:10001000E9000108E7000108E50001080000000010
:10002000000000000000000000000000E3000108E4
:10003000E100010800000000DF000108E3CE000835
:10004000255701082557010825570108255701089C
:100050002557010825570108F1CE0008255701084A
:10006000255701082557010825570108255701087C
:1000700075CE000869CE00083D36010825570108F5
:100080005DCE000851CE000825570108255701080C
:100090000D0201082557010825570108F7CE000871
:1000A00025570108F1BB000891BB000819BC0008E6
:1000B000E1BB0008D1BB0008C1BB000825570108FF
:1000C000255701082557010825570108255701081C
:1000D00025570108353601082D3601082536010857
:1000E000FDCE0008255701080940010825570108E1
:1000F000A1BB000825570108B1BB0008255701081E
:10010000000000000000000000000000255701086A
:1001100025570108255701082557010825570108CB
:1001200025570108255701082557010825570108BB
:1001300025570108255701080000000000000000B5
:100140002557010825570108255701080000000020
:10015000000000000000000000000000000000009F
:100160000000000000000000255701082557010885
:1001700025570108000000000000000000000000FA
:080180000000000025570108F2
:100188002DE9F04FAF4CB04E23682DED048B9BB09A
:100198009D6A0CF071FE6368C01A30800CF06CFE2A
:1001A800AA4B60601B78012B01BFA94B32881A80CB
:1001B800A84A04BF12885A80A74B13A8DB6898473F
:1001C8009DF84C3023B1277A002F01F07D800AE09A
:1001D8000CF052FEA14A63681268EB1A18445032B8
:1001E8009042E9D3EFE711F0B3F808B911F0C6F877
:1001F8009B4B93F856229B461AB99A4B1B88002BA7
:100208004ED0994A61891268B1FBF2F1974A8D4B39
:100218001278481C80B2A0811AB3B3F80EA000234C
:10022800884D934A05F1180E05F1100832F813C0ED
:100238003EF8136038F813202EF813C0C6EB0C06EE
:1002480012FB0AF20FFA80F992FBF9F2164428F829
:1002580013600133042BE3D1844BE98100221A7027
:1002680002E0DA89013ADA81E089764A03B2002BA2
:100278004FF0000313DDB2F90C507E4931F813201A
:10028800083112FB00F231F8131092FBF5F28A1ACA
:10029800774921F813200133042BEED100E0D381F4
:1002A800754B6F4E1B78ABB1744BB3F90620B6F89B
:1002B80052329A420EDC7379012B01D0192B02D1EC
:1002C80096F89C2232B90E2B04D0082B1EBF684B1F
:1002D80000229A8096F810529DB3624B1B889B07A8
:1002E8002FD0674BDFED677A93ED080AB4EEE70A83
:1002F800F1EE10FA20D917F039FFD4ED087A20EE84
:10030800270A17F0AFFEB0F5617FA8BF4FF4617000
:1003180007EE900AB8EEE70ADFED5B7A80EE270A6F
:100328000FF041FD07EE905AF8EEE77A27EE800AC3
:1003380017F098FE80B200E000204D4AD388184498
:10034800D080524B1B689D0640F1D480454B1B88DA
:1003580003F03003002B00F0CD804D4B1B78D807FD
:1003680040F1C8804B4BDFED4C7AB3F90430DFF82D
:1003780034810A2293FBF2F308EE103AB8EEC88AE9
:1003880028EE278AB0EE480A0FF00DFDF0EE408AFD
:10039800B0EE480A0FF068FD404B414A1B6893F8DD
:1003A8000390B0EE409AB2EE048AB9F1000F7DD006
:1003B800DFF8F4A0B2F90200BAF8025005922BB2A5
:1003C800C01A08F07BFCC9F100039842059A03DBC8
:1003D8004845A8BF484600E018462844BAF80050E7
:1003E800069381B2B2F90000AAF802102AB2801A64
:1003F800059108F063FC069B0599984203DB484584
:100408000346A8BF4B461D44ADB2AAF800502DB212
:1004180007EE105A0BB207EE903AB8EEC70AF8EE9C
:10042800E77A28EEC07A20EE090AA7EE897AA7EEC5
:10043800A80A87EE087ABDEEC77A17EE103AA8F830
:1004480000304FE0D8050020923E0020FA17002027
:10045800FC1700206E1E0020303E0020181F0020D0
:1004680090360020E41E0020A4180020240B002051
:1004780082180020E8050020020000208C1E0020C1
:10048800541C00208FC2753CEFB6B044701E00208B
:10049800DC120020B818002035FA8E3C940A00209F
:1004A800200B00208E3E00201C0B0020B2F90230E9
:1004B80007EE103AB2F9003000EE103AB8EEC00A72
:1004C800B8EEC77A68EEC07A20EE090AE7EE097A34
:1004D800A7EE280AC7EE887AFDEEE77A17EE903A7B
:1004E800A8F8003080EE080AFDEEC07A17EE903AC0
:1004F800A8F80230C04D95F82430013BA846082BD7
:1005080000F22782DFE813F009004A00F100250213
:10051800DD016D01BE0125021302B84B4FF4805C6A
:100528000020A3F828C00146CDF81CC0069309F0A6
:1005380079F8824609F0CEF8BAF1010F40F0098245
:10054800069BDDF81CC0DFF8B09200226A7605929F
:100558000820A3F828C040F2AB1109F063F8052879
:10056800059A02D189F819A00DE001280BD10423BE
:10057800A34813A905F048FC9DF84F30AB2B04BFE6
:10058800022389F8193009F0A5F86A7E9A4B002AE7
:1005980000F08881022283F82420ABE7DFF85C9220
:1005A8004FF48053A9F828306A7E0593022A0CBFBD
:1005B8004FF0804A4FF0000A0021372009F032F846
:1005C8005146292009F02EF8824609F083F8BAF13D
:1005D800000F40F0BE816A7E059B022A26D1A9F849
:1005E800283051463A2009F01DF813A98146524691
:1005F8008348042305F008FCB9F1000F72D109F013
:1006080069F89DF84D309DF84C201B0443EA0263BD
:100618009DF84F2013439DF84E2043EA0223002FF4
:1006280000F09481C3F38073AB7602E0724B83F8D9
:100638001AA0724B4FF480521A850920002108F045
:10064800F1FF00283BD16F48102108F0CBFF81460D
:10065800A8BB7F20012112F031FB0128824630D14E
:100668004846022112F02AFB60B1012829D10590E1
:1006780016213A2012F022FB059B01308002E86324
:1006880099461EE004212C2012F018FB03210AFAD7
:1006980000F94E2012F012FB0C210590362012F0C2
:1006A8000DFB059B02330AFA03F300FB0330A0FBA2
:1006B8000901430A43EAC153EB63D14601E04FF015
:1006C800000909F007F8B9F1000F00F042814B4B1F
:1006D8004FF480521A850A20002108F0A3FF08B9B8
:1006E80003237BE008F0F6FF30E113A8102108F09F
:1006F80079FF002840F02D819DF84C309DF84D2061
:1007080085F828309DF84E3043EA02236B859DF822
:100718004F3085F82C309DF8503085F82D309DF8F5
:10072800513085F82E309DF8523085F82F309DF8DD
:10073800533085F830309DF854301A0903F00F0310
:1007480085F832309DF8563085F831209DF85520CF
:100758001B0443EA02639DF8582013439DF8572071
:1007680043EA02236B639DF859309DF85A201B0118
:10077800DBB243EA121303F5FA6302F00F022B8788
:1007880085F83A20002F00F0E48008F0A3FFAB7E44
:100798007BB91A4B4FF480521A8510204FF4007120
:1007A80008F040FF804608F095FFB8F1000F40F0D0
:1007B800CD80134A138823F040031B041B0C1380BD
:1007C800138823F038031B041B0C138013889BB277
:1007D80043F04003138000232B62042385F8243060
:1007E80088E694F8241089B1074B1A68910340F100
:1007F800B08001F054BA00BFCC23002000040048A8
:10080800003800400C240020000002402B682A7A9F
:10081800A84803EB02224FF4807305F0F5FA2B7A0F
:100828000133DBB2022B2B7240F093800021A148E8
:1008380005F012FB00219F4805F00EFB9D48FF21A3
:1008480005F00AFB00F01F00052810D1072288F8E0
:100858002420994AD8F80C501268984BC8F81420EC
:10086800002D76D059681A681B69012047E008F006
:1008780001FFED68914B002D3FF43CAE0120596813
:10088800002251E012F00AFA002859D000222A76F4
:100898002A6A8A4B012A08D9013A1A62DA690132AE
:1008A800DA61082283F8242053E004D108F074FEAA
:1008B80002284ED102E0042283F8242008F00AFF1F
:1008C80047E02868DFF8F4914FF4007108F08AFED9
:1008D800012816D002D302281AD03AE008F0FAFE0E
:1008E800D9F80C500423002089F8243089F818001E
:1008F8007DB3D9F80410D9F80020D9F81030A847EA
:1009080027E06D4B1A68D9F8143064339A4220D91D
:1009180008F0E0FE08F0AEFEED68684B002D3FF4ED
:10092800E9AD0020596802461B69A847E2E512F0C4
:10093800B5F928B108F0CEFE042385F8243008E084
:100948005D4B1A686B69FA339A4202D908F092FE35
:10095800D0E598F82430013B022B09D8564B574A6A
:100968001B6852699B1AB3F5FA6F01D908F082FE29
:1009780098F82430042B02D0082B40F0CA81504D3F
:1009880009F074F86B78022B59D0032B40F0C18121
:100998004C4808F0C2FB4C4808F0BFFB4B4808F035
:1009A800BCFB4B48B3E1D5F804C0AB682969DFF854
:1009B80010E1CCEB03028A4284BFCEF80CC0CEF81B
:1009C8001020032840F07481D5F81080DFF8F090EB
:1009D8000623B8F1650FAB7031D9A8F16403C9F8E3
:1009E800103008F0CFFDA8F16508404200EA080879
:1009F80008F10108C9F8108008F0C4FD80451ED927
:100A0800344BD9F80CA01868D044023080452CBF6C
:100A18000020012008F0C4FC2F4BD9F81020C3F89F
:100A280000A07C33C9F804A01B68C9F808805343A8
:100A38002A4A5B0213605360052389F80230AB78B9
:100A4800072B00F26681DFE813F008004D00D8009C
:100A5800E300E5003F0155015F01002013A90922C9
:100A6800034608F043FE012840F05381139B93F896
:100A7800FE21552A41F0348193F8FF21AA2A41F03A
:100A88002F8103F5DF7203F5FF73906868B1117960
:100A9800A1F10B0EBEF1010F03D8114B1860012311
:100AA80030E101F0F7010629F7D010329A42ECD173
:100AB80001F016B900380040681E0020CC23002041
:100AC8001C240020D4350020C03400200435002028
:100AD8004835002024360020B03500209435002009
:100AE8001836002041F2FC1913A955F80900DFF85F
:100AF8005C830922002308F0F9FD012840F00981F0
:100B08000023139A88F80030B2F80B30B3F5007F51
:100B180041F0EE80137C022B41F0EA8092F8FE311E
:100B2800552B41F0E58092F8FF31AA2B41F0E08087
:100B3800B2F80EA058F8091008F590530AEB010C0A
:100B4800C3F800C0517B41F2102348F803104B1E34
:100B58007F2B01F2CD804B4203EA0109894541F020
:100B6800C78041F218214FEA4923013B48F8013078
:100B7800D18A01B9516A41F20423E950B2F811E06F
:100B8800B14B4FEA4E1E0EF2FF1E4FEA6E2EC3F80F
:100B980000E0B2F8130000B9106A41F208284900D1
:100BA8000AEB0E030B44C31AB3FBF9F345F80830FC
:100BB80040F6F4784345A54803D80123037001F0B3
:100BC80097B84FF6F478434594BF02230323037084
:100BD8002B789E48032B41F21C230CBFD26A0022BB
:100BE800C250E64441F20C2371440020E95008F059
:100BF80043FAAB780133AB708BE00323AB70944BB3
:100C0800009394499448052230230BF039FB80E087
:100C180091487CE008F0B6FC8246287D10B1012896
:100C280019D0FBE78D4B8E491A68023208F07CFE1A
:100C38000328F2D801A353F820F000BF1B0D0008C9
:100C4800550C00081B0D0008D10900086B6801331A
:100C5800AB60012336E0834AD5F804E0136852F804
:100C6800082C4FF0FF314FF000095B02B1FBF3F3A2
:100C78001EEB030049F100014FF00009494502F15C
:100C8800020208BF904238BF03EB0E0202207649E9
:100C980008F04AFE0328C0D801A353F820F000BF8B
:100CA8001B0D0008AF0900081B0D0008AF0900085C
:100CB8000133B3FBFAF20AFB12320AB153449B1A0E
:100CC8006B6000232B75A8E7DFF88081AA680120F4
:100CD80008F104010BF04EFB012803D1062388F824
:100CE8000230ACE6022814D141F2B4120123AB540D
:100CF80000F0FBBF584800210BF07CF80128F1D127
:100D0800AB780133AB709AE6032300F0EEBF08F02E
:100D180004FA564B1878002840F0D482544D2B68BA
:100D28001A0340F1CF82534A1378033B052B9046B0
:100D38002DD896F84D341BB1022B1BD1024607E083
:100D4800A06A03689B68984714E00132082A11D00A
:100D58003E4902F5817301EB0313DB79DB07F4D419
:100D6800130103F5815306335B5C012B98BF00F533
:100D78000070EAE7E36A94F830201344B3F5807F03
:100D8800A8BF4FF480738342D4BFE362E06298F84F
:100D98000030023B092B00F28982DFE813F00A00D9
:100DA80007013301520166017E018F0131025502AC
:100DB800610296F84D34022B40F0F08094F84830E8
:100DC800052B00F27382DFE813F00600710234008D
:100DD80088009900E6001D484378032B014640F03F
:100DE800658241F2A4030122C35C84F8482053B110
:100DF80041F2E803C35C2BB141F22C13C35C73B915
:100E0800022300E01346442000FB031000F5855040
:100E1800194B00930430194910221323B3E0002220
:100E2800B5E00D9B002B51D01A78002A4ED04C2AE1
:100E380028D0134DA06B05F13C010DAA0AF056FF0E
:100E48000128EED032E200BF3C3600201C240020EE
:100E58008D840008B8B601088C350020243600209F
:100E6800202400202C36002024240020953E002039
:100E7800881E00200415002055DE0008C3B60108AE
:100E8800D80500205A784F2AD3D19A78472AD0D14A
:100E98001A7A542ACDD15A7A582ACAD19A7A542A17
:100EA800C7D153F8030F13901B798DF8503013A84E
:100EB80000238DF8513016F025FF6B6C984203D94A
:100EC80013A816F01FFF03466364B2E7A06B08F08F
:100ED800D1FA032384F8483070E7A06BA74D08F0D7
:100EE800CBF8002800F0E281A86B002108F0FEF89A
:100EF8000023AB63042385F848305FE74C23626C1A
:100F08008DF84C304F238DF84D3047238DF84E30F7
:100F1800551C07230A2213A9B5FBF2F002FB105255
:100F280030325A54013B022B0546F3D158202E2269
:100F380041F2A4058DF8560091488DF854205422AA
:100F48008DF855208DF85720475D00228DF85820E0
:100F5800012284F84820054647B141F2E800285CA0
:100F680030B141F22C12AA5C82B902E03B4600E0A3
:100F78001346442000FB035000F58550814B009335
:100F8800043020223C230BF07BF98FE104227B4BB9
:100F980083F848208AE1002F00F088810023E3626B
:100FA800E364794B1B68236503237DE1764B1A685C
:100FB800236D64339A4240F2798140200DF0A0FB02
:100FC800002840F073814FF04009704DE36C6B4F7F
:100FD800E85C58B105F0DEFFFB6A013BFB62FB6C85
:100FE800B9F1010903F10103FB64EED1E26C634B33
:100FF800AA5C002A40F05A81DA644FF0FF321A6581
:10100800042351E125230093614B019303F10C0262
:1010180002924920A3F10A025021023306F03AFB5A
:10102800002840F043812B684FF0FF3213F0800313
:101038000FBFE364E0642265052304BF226507232C
:1010480032E1544A02230021009301910291482081
:1010580002F1080306F01EFB002840F027814FF03C
:10106800FF332365E06406231EE14B4B019303F134
:101078000C02072502920095A3F1080247200021DF
:10108800043306F007FB002840F010814FF0FF33CF
:10109800E064236588F8005008E1404A05230021F0
:1010A800009301910291532002F1080306F0F2FA2D
:1010B800002840F0FB80E0640823F5E040200DF0B4
:1010C8001FFB002840F0F280E36C0C2B00F2E48058
:1010D800DFE803F0070B0E12182A2E32363A454F76
:1010E80088002F480DF01CFC86E02E482E4918E099
:1010F8002E482F492F4A7DE02F4896F84B1496F832
:101108004C2477E09BF8A0232C485C2353430BEB3B
:1011180003020C2192F81C2301FB02339B449BF829
:101128001E130DF0FDFB67E02548B6F8D010F8E770
:101138002448B6F8D210F4E7234B24481969F0E79D
:10114800234B24481988ECE7636DD90403D522485A
:1011580096F81212E5E7094B0B22DA644CE01F48B7
:1011680096F8161296F8172296F815320DF0D8FB55
:1011780042E01B48B4F85810D3E700BFD805002058
:101188001C24002039DE0008681E0020589501083C
:10119800C2950108749701088C970108D89701082F
:1011A800C8B60108E2B60108F7B60108FFB601089B
:1011B80013B701081FB7010828B7010839B7010894
:1011C80043B7010852B70108303E002061B7010853
:1011D8000800002071B701087BB7010888B701082B
:1011E800A1B701082B681A0506D5C148B6F81C1224
:1011F800B6F91A220DF094FBE36C0133E36455E071
:10120800BC4B1B689B011CD5B4F85C30BA4DC3B904
:10121800BA4BD5F860901F68452005F0BBFE0E203C
:1012280005F0B8FE48460DF02EFB38460DF02BFBB6
:101238004FF48053A5F85A300A2388F8003005F097
:1012480085FF06F009FA31E094F86430002BF6D0F7
:10125800A84B1B689F01F2D4092388F80030F0E7F7
:1012680096F84D14A44B94F86520022940F06A853D
:101278002AB1586B002107F039FF30B916E05D6BD1
:101288001DB12B78002B40F03585002363630423C0
:1012980084F8483000F056BD0DF052FA30B14FF4E2
:1012A8008053A4F85A300A2388F8003096F84D3451
:1012B800022B07D141F2B513914AD35C13B1012334
:1012C80088F80030002323728E4B0BAD5B682846EC
:1012D8009847002800F032818B4B187800230328A8
:1012E8008A4E02BF8A4F56F8231027F813109A0027
:1012F80035F91310B1500133032BF0D1834894F81A
:101308006720014609F09EF994ED1A8AB5EE408AE5
:10131800F1EE10FA12D17F4FDFF808923B88002BCC
:1013280000F0C780D4F8DC301B78A9F1480808EE33
:10133800103AA9F13C054FF0000A5CE06E4B93F8B7
:101348006C509DB9744B1A681F467AB1DFF8A881B2
:10135800396808F170002844B0EE480A24350EF0C8
:101368007FFA6C2DF2D1012388F86C3094F86C3038
:10137800002BD0D0002556F8253007EE903A674B61
:10138800242000FB0530B8EEE70A0EF040FA16F00C
:1013980069FE46F825000135032DECD1BBE7D5EDF4
:1013A800006A07EE103A37EEE66AB8EEC77A86EEBC
:1013B800077A36EE877AD5ED026A85ED017A77EEFF
:1013C800C77A85ED007AE6EE276AF0EE667AC5ED13
:1013D800036AC5ED026A0023012846F80B3049F874
:1013E8000B3038D00AF1010ABAF1030F08F10408EA
:1013F80005F1140573D0484A388813684FF47A7198
:10140800B1FBF3F3C3EB431103EB8103DB009BB2A6
:10141800984202BF0023C8F800302B61D8F800308A
:10142800194656F82A30194456F82A30C8F80010D8
:1014380007EE903A2B690133012B96464FEA8A0B47
:10144800F8EEE77A2B61AAD10023C5ED017AC5ED44
:10145800007AAB60BFE72B69CDF818E0012BC3BF5A
:1014680003F1FF3300EE103AD5ED037A9FED2C0A15
:101478000592C4BFB8EEC00A87EE800A16F0D6FE01
:10148800059ADDF818E018EE103AA3B1F8EEC87A1C
:10149800B4EEE70AF1EE10FA0DDDDEF800204FF4A5
:1014A8007A73B3FBF2F3C3EB431203EB8203DB0063
:1014B8003B80002338E012684FF47A73B3FBF2F3F1
:1014C800C3EB431203EB8203DB00D8F800209BB286
:1014D80002EB530292FBF3F349F80B3082E73888AA
:1014E800012801D106F020FF3B88013BE0E700BF5F
:1014F800ACB70108E81E0020D80500207C3E00207B
:101508001C240020303E0020FA1700208C180020F0
:10151800FC1700208C3E0020181F002048060020E1
:10152800000000000007002056F8232059F8231077
:10153800521A46F823200133032BF5D194F834319D
:101548002BB19E4A013B82F8343100F016BC9C4A0C
:101558009C49D2ED787AF5EE407AF1EE10FA18BF90
:1015680092F8E831B2F832221ABF03F1FF33DBB246
:10157800012384F83431944B00930D68934908682B
:101588009349503B0968A847924B934ADB780893E4
:10159800924B93F800B0BBF1030F18D9874BD3F8DF
:1015A80038315D88B5F5FA7F11D28D4BB2F90460F8
:1015B800B3F9040080EAE077A7EBE0776942CB1B38
:1015C8009E4203DBEB19B342A8BF33469380854B99
:1015D8001B68DD79E5B1844909688E0715D583490B
:1015E8000978012911D9DB78814E59433688CB1AFD
:1015F8009E4288B203DBB1420B46A8BF334601B214
:1016080009031BB291FBF3F301E04FF480530493F9
:1016180053880593774BD4F838C17748B2F800E07F
:10162800B2F9048093F8009000210B460A465A4507
:1016380048D29CF9004090ED016A644208FB04F42A
:1016480007EE904ABDF9144006EE904A0FFA8EF460
:10165800B8EEE77A07EE904AF8EEE77AF8EEE66A2F
:1016680067EE867A90ED026AE6EE867A0DAED0EDE8
:10167800036AE7EE267AFDEEE77ACDED067ABDF845
:1016880018401DB1049F24B27C43241326F812404D
:101698000DAC0FFA83FA34F8124026B2564505DC31
:1016A8000FFA81FA5645B8BF214600E02346B9F142
:1016B800050F04D1042A9CBF504E26F8124001326F
:1016C8001030B4E7484A3D4E5B1A1FFA83FC136892
:1016D8004B4913F4805F9646414B31D0494A374D08
:1016E8001278500758BFD6F80022D888D6F80032AA
:1016F8005CBF128AA6F8FC211A8A434B1F68FB8834
:1017080004B2C3EB0208444503DC0B683C881A8822
:1017180005E013449C4205DB0B687A885C88A5F8D1
:10172800FC0111E0B5F9FC314345D9BF3C880B6891
:101738000B687A88D5BF1A885C882046104603E073
:10174800D8880B681A885C883049A7B295B27A1B8A
:101758000FFA8CF312B2934225DD01240C70002796
:10176800140394FBF3F3C6F804325F450AD20DA9BB
:1017780031F9178003FB08F8C8F30F3821F81780F0
:101788000137F2E71B4B1B780224062B92FBF4F47B
:1017980005EB040292B23BD1BBF1020F38D8174BCC
:1017A800A3F802C034E000220A70022193FBF1F38F
:1017B800EA18F91A92B289B22BE000BFD8050020C6
:1017C8009036002070010020D038002068180020D2
:1017D800840A0020B81E002088190020B4190020AF
:1017E80082180020DC170020881E002074010020C9
:1017F8002C180020FA17002014070020FC170020DE
:10180800CC1B0020963E0020C81B0020A9180020F1
:101818001146B6F9FC310493AC4BDEF80070D3F8EE
:1018280000E0AB4BAB4D1C68D6F8008207F0100304
:101838000993A94B1B7803F00403DBB20593A74B6C
:101848001B6803F000630693A54BB3F906300793B2
:1018580007F4805900265E4555D20DAB33F816C003
:1018680003B207EE903A9F4B03EB061393ED007A11
:10187800F8EEE77A13B267EE877AFDEEE77A17EEAD
:1018880090AA9A4503DB0BB25345A8BF534663445D
:10189800089F9BB225F8023F1BB217B1B4F804C0E9
:1018A80015E0B9F1000F10D0B8F810C0BEF806A0C6
:1018B800049FCAEB0C0C674504DCB4F800C0BEF802
:1018C80000A006E0BEF802C001E0B4F800C0B4F819
:1018D80002A0634503DB5345A8BF53469C46099BBA
:1018E800A5F800C06BB1059B5BB1B9F1000F08D139
:1018F800069B33B9B8F81230079F9F42BCBFA38834
:101908002B800136A7E7744B1A7802F0040202F024
:10191800FF034AB17449754F91F80832013BDBB2B5
:10192800182B00F24C8109E05B45F3D2704A32F87B
:101938001310704A22F813100133F5E701229A4078
:101948006D4B1340002B00F03A816C4B64481B88A8
:1019580013F4807F08D06A4B1A88ADF84C205A8857
:10196800ADF84E209B8815E0664B1A88ADF84C20E0
:101978005A88ADF84E20644A9B881268ADF85030FA
:10198800D20409D5D1F80022B0F90640128A94424F
:1019980002DA5B42ADF850305C4DB5F902304FF4D5
:1019A8007A7203F5E16353434FF4616493FBF4F3F4
:1019B800A3F5FA73ADF86430B5F9003003F5E163C7
:1019C8005A434C4B92FBF4F21B88A3F2DC53A2F56A
:1019D800FA72ADF85230D1F80032ADF866201B8AA1
:1019E8000288D21AADF854204288D21AADF856208F
:1019F8008288D21AADF85820C288D21AADF85A2077
:101A08000289D21AADF85C204289D21AADF85E205C
:101A18008289D21AADF86020C289D31AADF8623033
:101A28000023002227F813200133082BF9D12B4A71
:101A3800374B12680492374A1B7812683649059268
:101A4800364D072202FB031B594500F09E800B7898
:101A58003BB103F1150201239340049A134000F0AF
:101A6800908011F806CC059B11F805AC11F8034CD1
:101A780011F8018CCCEBCC0E03EB4E0E6420BEF9B2
:101A88000020BEF902309B1A9BB211F9022C4FEAD2
:101A980053095A434FEA4A0692FBF0F21AA8C9EBD7
:101AA800020292B2064414B936F81C0C0CE0B5F9DF
:101AB800000036F91C6CB04232DA0444844203DB7D
:101AC800A6423046A8BF2046288032E0C81B002026
:101AD800CC1B0020661A0020963E0020E81E00203D
:101AE8008C1E002014070020D8050020280800209C
:101AF800FC3C0020681A002099209801E41E002070
:101B08008218002088190020881E0020B81800209C
:101B1800D01B002064180020D71B0020E2070020FB
:101B280007DD041BB44203DB8442A8BF04462646F3
:101B38002E80DEF80A4011F9046C012000FA0AF040
:101B48002042288812B216FB00F014BF4FF0FF3471
:101B58000124642690FBF6F090420ADB4FFA88F2E3
:101B68005A4392FBF6F2C9EB020212B28242A8BFB4
:101B78000246844B33F81C9002FB049423F81C4063
:101B880000E02B80023507315EE77F4B7F4ED3F8AC
:101B9800008000250E2202FB058236F8023F92F9EA
:101BA8000640E8B214FB03F3642493FBF4F4348096
:101BB8000BF0E6FA01352044082D3080EAD1744B49
:101BC800714D1B6813F0200F32D000200BF0D8FAAB
:101BD8003880064601200BF0D3FA6E4B694C1B681F
:101BE80078801B0624D56C4B6C4AD3F82C321B78B2
:101BF800012B20D12968138891F914E0B2F9022049
:101C08001EFB03FE91F906304FF0320C5B429EFB3F
:101C1800FCFE1FFA8EFE53436FF0310293FBF2F283
:101C28007244B11893FBFCF373442180184460801C
:101C38002D68002318E0D5F800E053889EF90610B7
:101C480011FB03F1322391FBF3F131442180118818
:101C58009EF9142012FB01F292FBF3F21044E6E71E
:101C68000133082B3A5311D00E2101FB035137F9E8
:101C78001300B1F90020B1F9021090424FEA430471
:101C8800EEDB0AB28242A8BF0246E9E70FF060FB2A
:101C980008B10FF073FB404B01221A726DE04FF44C
:101CA80000325A6002F18042583211684FF6FE73D2
:101CB8000B4013603A4B1A8912F0010F994601D074
:101CC8009B89F7E710F032FF0028FBD1B9F8043000
:101CD80023F002031B041B0CA9F80430FEF7A6BD71
:101CE800022241F2B413EA5401236B70FFF711B8D2
:101CF8000322F6E795F82830002B7FF4D7AAAB63C8
:101D080085F83C306B6AEB622B632B7E042203F070
:101D1800080385F8282003F0FF022BB141F2941341
:101D2800204AD3586B6300E06A6300276F62AF6094
:101D3800EF60284611F006F805232F6485F828304F
:101D4800FFF7A3BA184B1A68236DC8339A4204D810
:101D58000CF0F6FC00283FF4A9AA96F84D544DB9AA
:101D6800A06A06F082F894F86630A562022B01D1C9
:101D780011F0F0F80123FFF797BA1BB0BDEC048B04
:101D8800BDE8F08F280800206418002026080020ED
:101D9800881E0020E81E0020D8050020B818002062
:101DA800003800401C240020681E00202DE9F04F58
:101DB8009F4BDBB01D780293002D00F0E5809D4B12
:101DC8001868002802F0438006F000FB9A4C20684F
:101DD8000BF0F4F8002802F03A802068974C0BF0DA
:101DE800EAF8092801D03F2852D100272568944EE7
:101DF800B8462DB1934831682A4615F01BFF20B923
:101E08003746B8F1000F00D1B0468F4B10369E42CE
:101E1800EFD34646B8F1000F1DD0D8F800C0D7F868
:101E2800009023681CF803E019F80300704512D1EC
:101E38005A1C844958B92D2B09D8DFF800E2CEF88E
:101E480000204FF0200E01F803E0885403E001F869
:101E580003E02260E5E723680BB1B8450FD07B4863
:101E680011F09EFDBE4207D856F8100B11F098FDF0
:101E7800092011F01FFCF5E70BF070FE0025236820
:101E88009D42A3D26F4B585D11F014FC0135F6E763
:101E98002368002B41F06087042841F0B187694826
:101EA80008F0F8FD01F0D3BF2068DFF8C0810BF01F
:101EB80085F8002851D0D8F800000BF07CF8D9F844
:101EC800003093F848208346002A77D1242840F030
:101ED800D580012283F84820D9F8003093F848804B
:101EE800B8F1060FE0D193F84900642800F0C882E1
:101EF80000F2AC81362800F0678600F25C81242865
:101F080000F0978500F21081032800F09E8240F2CD
:101F1800EA80052840F0FC801A200DF0F9FA002428
:101F28004B4B185D01340DF0AEFA0B2CF8D10024A0
:101F3800484B185D01340DF0A6FA082CF8D100249E
:101F4800454B185D01340DF09EFA072CF8D10DF0C1
:101F5800ABFA3368002283F84820DAF8000006F06C
:101F680035FA3E4B93F87C3053B13D4B585905F048
:101F780071FF0BF09DF80DF0AFFF3A4B3A4ADA606B
:101F88004C35982D01F06387354A354BAA58EB1824
:101F9800002AF5D0354C364E22601392DFF8D8A0CF
:101FA8003360002212AB334F8DF851201422129760
:101FB8008DF85020CAF80030B14675E7012A04D1DF
:101FC8004D2814BF0022022284E7022A04D13C28AB
:101FD80014BF002203227DE7032A0AD140284FF0CC
:101FE80000029FBF1A71DA715871987198BF042264
:101FF80070E7042A08D19A7983F8490080EA020B2D
:1020080083F806B0052265E7052A7FF465AF59799C
:102018001A799142997906D941409971511C1971DF
:102028001344187258E781420CBF0622002251E778
:10203800953E0020F83C0020F03C0020601800206D
:10204800A8B101083018002078B30108C6B8010803
:1020580013B701081FB70108F7B6010808080020E0
:10206800EC3A002000ED00E00400FA05141F0020FF
:102078000C1F0020D1CF0008101F0020D54A13786C
:1020880003F0040303F0FF00002B7FF425AFBBF13E
:10209800230FD8F8001019D10192029A0123137066
:1020A800CD4B1960CD4B1960996010211973CC493B
:1020B80058735F60CB4804330B6011F071FC0BF070
:1020C8004DFD019A137843F002031370C64B1B6849
:1020D8001B785B4501BFC54BC54A1A60C54B04BF99
:1020E800C54ADA60F8E6012800F0A381022840F02A
:1020F8000B8604200DF00CFA42200DF0C4F9542090
:102108000DF0C1F946200DF0BEF94C2000F0E1BDFC
:10211800C0F0A681222840F0F785B84C50200DF079
:10212800F7F904F1500738E32A2800F0AA8419D8EF
:10213800262800F08484282840F0E685AF4C072044
:102148000DF0E6F9B4F81A020DF0E5F9B4F81C023E
:102158000DF0E1F994F81E020DF095F9B4F820029B
:1021680000F0A5BD322800F0F884342800F0308350
:102178002C2840F0C985A14C0C200DF0C9F994F821
:1021880048020DF080F9B4F854020DF0C4F9B4F81F
:1021980050020DF0C0F9B4F852020DF0BCF994F8F1
:1021A8004A020DF070F9B4F85A020DF0B4F9B4F817
:1021B8005C0200F07CBD452800F0668523D83B28EA
:1021C80000F0E4820AD8382800F048843A2840F021
:1021D8009B8504200DF09CF900F064BD402800F0B8
:1021E800C384422800F0CF843D2840F08D85834C7D
:1021F80002200DF08DF994F895020DF044F994F849
:10220800940200F066BD4D2800F0858413D8492853
:1022180000F046824B2800F06384462840F074851D
:102228000D200DF075F900200DF02DF900200DF0AE
:102238007BF900F034BD502800F0E084522800F00B
:102248001E854F2840F0608500F0EABC732800F036
:10225800498373D86B2800F070831FD8672800F073
:10226800668111D8652800F01D81662840F04C85EC
:1022780012200DF04DF9624B1B88B3F5806F8CBFAF
:1022880008270127002435E1692800F0B98100F208
:10229800358310200DF03CF90024A9E16E2800F0E8
:1022A800D2810CD86C2800F0BE816D2840F02C85B6
:1022B80006200DF02DF900200DF036F935E17028D3
:1022C80000F02182C0F0F281722840F01D854B4C4D
:1022D80016200DF01DF9B4F850020DF01CF9B4F8F1
:1022E800D0000DF018F9B4F8D2000DF014F9B4F8D4
:1022F800D4000DF010F9B4F8AA020DF00CF994F816
:10230800A3020DF0C0F800200DF0BDF894F8A40267
:102318000DF0B9F894F81F020DF0B5F894F84C02D6
:102328000DF0B1F800200DF0AEF8B4F9EE310A2046
:1023380093FBF0F080B20DF0EEF893E37D2800F007
:10234800BA842AD8762800F009830AD8742800F0BD
:102358006282752840F0D8842F200DF0D9F8294CD6
:10236800E9E1782800F0EF80C0F09A827C2840F0FC
:10237800CB84224C08200DF0CBF8B4F8D8000DF02F
:10238800CAF8B4F8DA000DF0C6F8B4F8DC000DF0BD
:10239800C2F8B4F8DE0000F08ABCA42800F0068376
:1023A80032D896287CD0A02800F035837E2840F0CB
:1023B800AB84124C03200DF0ABF894F8C7010DF074
:1023C80062F894F8C8010DF05EF894F8C90100F0BD
:1023D80080BC00BF963E0020F03C0020080800208A
:1023E800F83C0020F6B80108903B0020FC9F002034
:1023F800EFBEADDE00ED00E00400FA0590360020E7
:1024080008000020FF970108F12800F0CB80FE2883
:1024180000F0F382F02840F07784CB4C04200DF0D4
:1024280077F8B4F8F2010DF076F8B4F8F00100F09E
:102438003EBC03200DF06CF800200DF024F80120BC
:102448000DF021F8102000F044BC0DF061F80220D6
:102458000DF019F840460DF016F8012000F039BCCF
:1024680006200DF055F843200DF00DF84B200DF027
:102478000AF844200DF007F833200DF004F854E072
:1024880007200DF045F8E7200CF0FDFFAE4B58791A
:102498000CF0F9FF00200CF0F6FF042000F003BC5C
:1024A8000C2000E00B200DF033F8A84B18880DF035
:1024B80032F803F0E6FC0DF02EF8A54B1B68C3F3C9
:1024C800C000C3F38002800040EA4200C3F3400228
:1024D8001043C3F3401240EAC20003F0100318434C
:1024E8000DF019F80CF0F4FE0DF01EF8964B93F869
:1024F800A003EEE3974B53F8240090FBF7F0013468
:1025080080B20DF008F8032CF4D1934C20880DF01C
:1025180002F8A0880CF0FFFF20890CF0FCFF0020D7
:102528000CF0F9FF00200CF0F6FF0020BFE31020AC
:102538000CF0EEFF0024894B185D01340CF0A3FF6A
:10254800102CF8D103E570207F4C0CF0E1FF002738
:10255800A046B4F856010CF0DEFFB4F858010CF0B0
:10256800DAFFB4F85A010CF0D6FF94F85C010CF0CD
:102578008AFF94F85D010CF086FF94F85E010CF078
:1025880082FF94F85F010CF07EFF0E2303FB0783A4
:102598000137D3F860010CF0C7FF082F04F10E04CF
:1025A800D7D1D4E47020684C0CF0B2FF04F1700766
:1025B80094F8E6000CF067FF94F8E7000CF063FF6E
:1025C80094F8E8000CF05FFF94F8E9000CF05BFF6A
:1025D80094F8EA000CF057FF94F8EB000CF053FF66
:1025E800073494F8E5000CF04EFFBC42E0D1AEE4AD
:1025F8005B4B185D01340CF046FF102CF8D1A6E4B3
:10260800584F3878400000F0FE000CF081FF00249D
:102618003B789C42BFF49BAC534B33F814000CF04E
:102628007AFF0134F4E7514C06200CF071FF208842
:102638000CF071FF60880CF06EFFB4F904300A20CA
:1026480093FBF0F027E007200CF062FF484B188856
:10265800FF28A8BFFF20C0B20CF015FF454B186833
:102668004FF6FF74A042A8BF204620EAE07080B26F
:102678000CF051FF404B18880CF04DFF324B93F88B
:102688001F223E4B186842B10A235843A042A8BFF4
:10269800204620EAE07080B209E300F30F00FAE771
:1026A80002200CF035FF364B188800E3354C0B2020
:1026B8000CF02EFF236818780CF0E5FE2368587894
:1026C8000CF0E1FE4FF0000827463B682D4C4344D0
:1026D80008F1010818790CF0D6FEB8F1030FF4D10F
:1026E8002368D8790CF0CFFE236898780CF0CBFEDD
:1026F8002368D8780CF0C7FE236858890CF00BFFC4
:102708002368187AE5E21E200CF002FF00241E4F11
:102718003B68234458780CF0B6FE3B682344D87ACB
:102728000CF0B1FE3B6823440134587D0CF0ABFE3D
:102738000A2CECD10BE414F8010F00283FF407AC85
:102748000CF0A1FEF7E700BF90360020923E002073
:10275800701E0020C01200208C18002028080020BD
:10276800681A0020883B00208C1E0020B818002022
:102778002C180020D81200209A130020D412002010
:10278800181F0020840A00206818002001200CF07F
:10279800BFFEBF4B1B6818789BE294F8A123BD4B82
:1027A8000C2101FB0233043493F838000CF06BFE63
:1027B80094F89E030CF067FE94F89F030CF063FEF8
:1027C80094F8A0030CF05FFEBC42E6D1FFF7BFBB54
:1027D8005A20B14C0CF09CFE04F15A0794F8F60309
:1027E8000CF051FE94F8F1030CF04DFE94F8F2034E
:1027F8000CF049FE94F8F3030CF045FE94F8F4034A
:102808000CF041FE063494F8EF030CF03CFEBC4299
:10281800E4D1FFF79CBB00274FF001094FF0000BF4
:102828009E4B1B789B4531DA9D4B1BF803204FF0DC
:102838000008984C0C2304F1300103FB08F3595CA1
:10284800914209D12344586B15F0EBF90246B9F1CE
:10285800000F07D14B4607E008F10108B8F11F0F38
:10286800E7D110E007440EE093420CDA0C2101FB9B
:1028780008410392496B0193C85C0CF004FE019B6C
:10288800039A0133F0E70BF1010BC9E7B9F1000F27
:102898003FF45DABF8B20CF03BFE4FF00009BDE72A
:1028A8007E4F38780CF034FE00243B789C42BFF40D
:1028B8004EAB7B4B14F803E0002176480C2200F164
:1028C800300C02FB01F313F80C20724505D10344C8
:1028D80093F838000CF0D7FD02E001311F29ECD144
:1028E8000134E2E708200CF013FE0124E0B20134C1
:1028F8000CF0C9FD092CF9D1FFF729BB10200CF009
:1029080007FE684B684C187800F002000CF0BBFD1D
:10291800664B18780CF0B7FD20680CF005FE60686F
:102928000CF002FE624B18880CF0F5FD614B18881C
:102938000CF0F1FD604B188EB9E105200CF0E8FDB4
:102948005E4B18880CF0E7FD5D4B18880CF0E3FD32
:10295800594B93F8320000F00100BAE10CF074FD15
:10296800804612200CF0D4FDB8F1000F01D1554B70
:1029780003E0B8F1100F03D1534B1F685C6801E006
:102988000024274640460CF07EFD38460CF0CCFD6E
:1029980020460CF0C9FD484B586B0CF0C5FD0020D3
:1029A8000CF0B9FD00200CF0B6FD6BE1424F97F832
:1029B800380080000130C0B20CF0AAFD97F838004A
:1029C8000CF061FD0024B84698F838309C42BFF4FA
:1029D800BEAA3E4F385D0CF056FD07F11003185D96
:1029E8000CF051FD07F120033037185D0CF04BFD5A
:1029F800385D0CF048FD0134E6E708200CF088FD4E
:102A08000024334B33F8140001340CF084FD042CFB
:102A1800F7D1FFF79CBA0C200CF07AFD2D4B186803
:102A28000CF082FD2C4B18680CF07EFD2B4B1868BF
:102A380039E104200CF06CFD174B986833E1164C13
:102A480006200CF065FDB4F8CC010CF064FDB4F878
:102A5800D0010CF060FDB4F8D40128E104200CF09A
:102A680057FD0D4C94F812020CF00DFD94F8160267
:102A78000CF009FD94F815020CF005FD94F8170206
:102A880027E101200CF044FD034B587921E100BFF8
:102A9800681800200098010890360020EC1E0020DD
:102AA800ED1E0020DC120020E4120020E2120020BB
:102AB800E0120020DE120020080800205413002035
:102AC800561300209C130020980A0020410800207B
:102AD800FC170020ACF7FF1FB0F7FF1FB4F7FF1F6C
:102AE800BE4C08200CF014FD94F8A8020CF0CBFCA6
:102AF80094F8A9020CF0C7FCB4F8AA020CF00BFD7C
:102B080094F8AC020CF0BFFCB4F8AE020CF003FD74
:102B180094F8B002DDE0B24CB24F207800EB4000F0
:102B2800C0B20CF0F5FC4FF000082378984507F187
:102B38000207BFF40CAA17F8020C0CF0A4FC17F853
:102B4800010C00EB800000EB800000F2EE2080B268
:102B58000CF0E1FC08F10108E7E701200CF0D8FCD3
:102B68009E4B93F84C02B4E008200CF0D1FC0024F2
:102B78009A4B2344013493F840020CF084FC082C4F
:102B8800F6D1FFF7E4B9954C10200CF0C1FC607940
:102B98000CF079FCA0680CF0C7FC94F848020CF023
:102BA80072FCB4F8CC010CF0B6FCB4F8D0010CF00F
:102BB800B2FCB4F8D4010CF0AEFCB4F81A020CF074
:102BC800AAFCB4F81C0272E0874B844C93F8790095
:102BD800C0EBC000C0B20CF09BFC04F1200794F8D5
:102BE800B4020023814AD25C904276D00C33302B59
:102BF800F8D10834BC42F2D1FFF7A9B9774C0420C8
:102C08000CF086FC01200CF03EFC94F84D040CF00E
:102C18003AFC94F84B040CF036FC94F84C0458E059
:102C28000B200CF075FC01200CF02DFC704B714C46
:102C38001B8A13F0100F13D194F8243073B16E4A25
:102C48005278032A0CD8DFE802F0090904020420AC
:102C580007E0032B8CBF0320022002E0012000E0E4
:102C68000020664F0CF00FFC38780CF00CFC57F87D
:102C78003C0C800A0CF058FCE06B400813E0012083
:102C88000CF046FC002024E013200CF041FC00244A
:102C98005B4B185D01340CF0F6FB0B2CF8D10020CF
:102CA8000CF042FC00200CF03FFCFFF750B90CF090
:102CB80032FCFFF74CB9494C03200CF029FC94F87E
:102CC80022020CF0E0FB94F823020CF0DCFB94F8F1
:102CD80024020CF0D8FBFFF73AB90CF0D4FBB4F897
:102CE800B6020CF018FC94F8B8020CF0CCFB94F87F
:102CF800B9020CF0C8FB94F8BB020CF0C4FB94F8C2
:102D0800BA020CF0C0FB74E7C8283CD15C796408AF
:102D1800122C02D910F042FA30E00027A74206D25E
:102D28000CF09EFB1AAB23F817000137F6E7224692
:102D38000023A34207DA1AA931F81300314921F810
:102D480013000133F5E7122A05D02E4B002123F892
:102D580012100132F7E72C4B01221A700EE0D1282D
:102D680000F00683D22840F0F387284B1B7803F045
:102D7800040303F0FF04002B00F0358300200CF05F
:102D8800C7FBFFF7E4B800F2EA81392811D10CF04B
:102D98005BFB124C84F812020CF056FB84F8160206
:102DA8000CF052FB84F815020CF04EFB84F8170265
:102DB800E4E700F215812B2804D10CF045FB074B02
:102DC8005871DBE700F28380252821D1034B0022CC
:102DD8009A600CF04FFB0DF077F8CFE790360020A3
:102DE800883B0020EE38002008080020943B002093
:102DF80000100048CC2300201C240020D0350020DF
:102E080013B70108701D0020BD220020963E002047
:102E180038D8232840F09C870CF016FB132804466A
:102E28003FF678AF0CF010FB0022D1490C23534336
:102E3800CF1897F83870874220D1CE4F0B44E8342A
:102E480007EB840493F8303063700CF0FDFAA0703F
:102E58000CF0FAFAE0700CF0F7FAC74BC7491A6899
:102E6800207107F1D0030B60C54B00201A6010F0E9
:102E78005AF8C44B80F0010018707FE701321F2A0E
:102E8800D3D147E727280DD10CF0EAFAB94CC4F89A
:102E9800CC010CF0E5FAC4F8D0010CF0E1FAC4F862
:102EA800D4016BE7292840F053870CF0D9FAB14CCC
:102EB800A4F81A020CF0D4FAA4F81C020CF0C4FA14
:102EC80084F81E020CF0CCFAA4F8200256E7332846
:102ED80005D10CF0B9FAA74B83F84C024EE725D878
:102EE8002D2840F035870CF0AFFAA24C84F8480240
:102EF8000CF0B6FAA4F854020CF0B2FAA4F8500296
:102F08000CF0AEFAA4F852020CF09EFA336884F87A
:102F18004A025B79082B7FF631AF0CF0A1FAA4F8CE
:102F28005A020CF09DFAA4F85C0227E7352825D14F
:102F38000CF08AFA0E2807463FF6ECAE0CF084FA3D
:102F480003283FF6E7AE8B4B062404FB073484F8CE
:102F5800F6030CF079FA84F8F1030CF075FA84F8AA
:102F6800F2030CF071FA84F8F3030CF06DFA84F8AC
:102F7800F4030CF069FA84F8F503FFE6372840F00B
:102F8800E7865B790724B3FBF4F4C4EBC4029B1A0D
:102F980013F0FF0F7FF4BEAEE4B2013CE4B2FF2CA5
:102FA8003FF4ECAE0CF050FA5FFA80F84FFA88F074
:102FB80005F072F8074600283FF4ACAE80F80080B0
:102FC8000CF04EFA78800CF03FFA38710CF03CFAAD
:102FD80078710CF039FAF8710CF036FAB871DCE750
:102FE800442804D1684B012283F87C20C6E656D8D1
:102FF8003E2809D10CF028FA5E4C84F895020CF0B2
:1030080023FA84F89402B9E616D83C2840F0A08642
:10301800594C276897F800800CF016FA3870236826
:1030280018780AF027F923681B7843453FF4A6AEC1
:1030380000200CF082FAA1E641280AD100240CF005
:1030480003FA4C4B23440134082C83F84002F6D190
:1030580094E6432840F07C860CF0F6F9454C0023B2
:10306800A36060710CF006FA0CF02EFF0CF0ECF97E
:1030780084F848020CF0F4F9C4F8CC010CF0F0F92B
:10308800C4F8D0010CF0ECF9C4F8D4010CF0E8F95C
:10309800A4F81A020CF0E4F9A4F81C026EE64C2815
:1030A80019D10CF0D1F9334C84F8A8020CF0CCF902
:1030B80084F8A9020CF0D4F9A4F8AA020CF0C4F917
:1030C80084F8AC020CF0CCF9A4F8AE020CF0BCF910
:1030D80084F8B00252E605D84A2840F039860CF048
:1030E800BFF9A6E74E2824D10CF0AEF911280746FF
:1030F8003FF610AE1F4C0CF0A7F907F5967704EBD6
:10310800470398710CF0ACF940F2ED23984205DDC5
:1031180040F6CA039842A8BF184601E040F2EE20E4
:1031280004EB4704A0F2EE20192390FBF3F0E071C2
:1031380024E6512840F00C86144B1B78012B3FF6EF
:103148001DAE0CF081F90B4C84F84D040CF07CF9A1
:1031580084F84B040CF078F984F84C040EE6D32874
:1031680016D10CF07DF9084BA3F87A0006E600BFEB
:10317800009801089036002068180020880A00206E
:103188008C0A0020020000200808002004150020F6
:1031980000F23481CE2810D1CD4B1B7858073FF56B
:1031A800EDADCC4A137843F0040304E0002382F821
:1031B8002431C94A01231370E0E500F28F80CA2840
:1031C80018D10024C54FD7F800800CF03DF9A04471
:1031D80088F80100D7F800800CF036F9A0443F6861
:1031E80088F80B000CF030F9274401340A2C787564
:1031F800E8D1C3E525D20CF027F9B64B1A7810B1FF
:1032080042F0020201E022F002021A700CF01CF9EE
:10321800B34BB44C18700CF02DF920600CF02AF95F
:1032280060600CF01DF9B04B18800CF019F9AF4B29
:10323800AF4A188092F8323043F0020382F83230F5
:103248009CE5CC283DD15B79092B7FF663ADA94C71
:1032580027680CF0F9F8387027680CF0F5F87870E2
:103268000CF0F2F823686428A8BF642018710CF0E9
:10327800EBF823686428A8BF642058710CF0E4F8C0
:103288002368FF28A8BFFF2098710CF0DDF8276895
:10329800642828BF6420F8710CF0D6F8B870276845
:1032A8000CF0D2F8F87027680CF0DAF833687881F7
:1032B8005B790A2B7FF662AD24680CF0C5F82072A2
:1032C8005CE5CD2840F04485814B1B785C073FF5D1
:1032D80055AD894B4FF4C8721A804FE5D0280BD1F1
:1032E8007B4B1B785F073FF549AD0AF099FF0CF05F
:1032F8003BFE0AF005FE41E5BFF431AD0CF0B0F835
:103308006FF4AF6E00EB0E039BB27C4CC62B98BFDC
:10331800A4F850020CF0A4F8A4F8D0000CF0A0F81F
:10332800A4F8D2000CF09CF8A4F8D4000CF098F89B
:10333800A4F8AA020CF088F884F8A3020CF084F828
:103348000CF082F884F8A4020CF07EF884F81F02CE
:103358000CF07AF884F84C020CF076F80CF080F84F
:1033680000EB80004000A4F8EE010CF06DF811E5C8
:103378000CF06AF883460CF07DF881460CF07AF878
:1033880080460CF077F85A4F04460CF069F80CF0B8
:1033980067F80CF059F8BBF1000F11D1584B102009
:1033A800C3F80090C3F804800CF066FD494A13780E
:1033B80043F001031370002C3FF4E0AC7C63DDE4C0
:1033C800BBF1100F7FF4DAAC4E4BC3F80090C3F892
:1033D800048004B17C634B484B4B0222011D1A70D8
:1033E80005F07EFCCAE40CF02FF8444B012883F862
:1033F800A0037FF67CAF83F8A04378E7DB283FF48F
:10340800BDAC00F28580D62809D100240CF028F83C
:103418003E4B23F814000134082CF7D1AEE431D820
:10342800D42840F095845B790F2B7FF473AC0CF0B3
:103438000BF8072807463FF66DAC0CF011F82F4B38
:103448000E2404FB0734A4F856010CF009F8A4F87C
:1034580058010CF005F8A4F85A010BF0F5FF84F8B0
:103468005C010BF0F1FF84F85D010BF0EDFF84F8CF
:103478005E010BF0E9FF84F85F010BF0FBFFC4F875
:1034880060017BE4D92811D10BF0EAFF1B4CA4F8AA
:10349800D8000BF0E5FFA4F8DA000BF0E1FFA4F880
:1034A800DC000BF0DDFFA4F8DE0067E4DA2840F06A
:1034B8004F840BF0C9FF114C84F822020BF0C4FFB3
:1034C80084F823020BF0C0FF84F8240256E400BFFE
:1034D800963E0020DC120020D8000020681800204A
:1034E800E2120020E4120020E0120020DE12002088
:1034F80008080020840A0020480A0020903600208E
:103508009C130020980A0020900A0020FC3C002010
:10351800F22821D10BF098FF0F2804463FF6FAABAA
:103528000BF092FFCF4BC4EBC4041C44A0710BF00A
:103538008BFFE0710BF088FF20720BF085FF607243
:103548000BF082FFA0720BF07FFFE0720BF07CFFA4
:10355800207309F0EDFD11E41DD8DC280DD10BF026
:1035680073FFC14C84F8C7010BF06EFF84F8C801E3
:103578000BF06AFF84F8C90100E4EF2840F0E88303
:103588000BF06EFFB84CA4F8F2010BF069FFA4F839
:10359800F001FFF7F3BBF52840F05B8101200BF049
:1035A800B7FFB24BB248B34F00241C70B14B214651
:1035B800C0221C7014F0F2FA8DF81740AE4B9DF83B
:1035C800172093F88210914260D99DF8172003EBD9
:1035D800C20292F88520D20751D59DF8172003EB37
:1035E800C20292F88410A54A32F91120002A46DD59
:1035F8009DF817203978DFF8788203EBC2020901B9
:10360800D2F8882050689DF8172048F8010003EB8D
:10361800C20308EB0104D3F888301A89E2804FF01E
:10362800000E92B24446012303FA0EF3134005D16B
:103638000EF1010EBEF1100FF5D100E0734604EB58
:10364800010E0831AEF8082002228EF80B20042261
:103658008EF80A20DEF80820CEF80C20012221443A
:10366800AEF804308EF80E2002F090FA3B781A017A
:10367800144458F80220E188916101333B709DF8A9
:1036880017300133DBB28DF8173097E7794A107895
:1036980083F824010BF0F7FE0BF006FFDAF80000C0
:1036A80004F094FE3368186804F0D4FB744B316856
:1036B8001960744BDAF800201A6004F01DFE724C91
:1036C8004FF0000884F8008084F8018004F0A6FB1D
:1036D8002F28F4D1DFF8C4B1ADF81C80DBF8003036
:1036E800BBF804201A8504F099FB019004F096FBBE
:1036F800664B187004F092FB654B187004F08EFB53
:10370800814604F08BFB1AAB03F8080008F10108A6
:103718005FFA88F29145F4D1039304F06DFB8DF8BC
:10372800190004F069FBDBF80020BBF804108DF8E1
:1037380018009161BDF818102288039B914200F08F
:10374800AF804FF0000907AC4FF0010803220DE0ED
:10375800494B9DF8682093F82411914200F2118199
:103768004FF0000907AC4FF0010808224949DFF87B
:103778002CB1434B0392002008704870DBF8081006
:10378800BBF80C0008851968086809F006FC2E20AB
:1037980004F036FE019804F033FE3C49087804F042
:1037A8002FFE3B49087804F02BFE404604F028FE23
:1037B80008F1FF33DBB20133039A04EB030814F872
:1037C800010B019204F01CFE4445019AF7D12D4CDF
:1037D800DFF8C080104604F013FE206898F8011046
:1037E80004F000FE98F80010206804F0FBFD244B5C
:1037F8001B68186809F0CCFB206804F0E7FDDBF8CB
:103808000830BBF80C209A61B9F1000F3FF457AFAC
:10381800184A00231370184A3B7892F82411DFF8ED
:10382800548099427FF6C2AC114C1B01E218022168
:1038380091731146E0580C3102F0A8F998F800305D
:103848001A01A118A258C9881185013388F80030D7
:10385800E1E7FA2840F07C820F4B1B7859077FF587
:1038680046AD75E27037002090360020D800002061
:10387800BC130020BA13002008080020681A002092
:103888008414002014150020881400208C1C0020AB
:103898008D1C002018150020963E00205036002070
:1038A800C94A1360019B303B00220F2B00F22C8287
:1038B80001A151F823F000BF013900084D39000873
:1038C800033D00085F3900081F3D0008593700080C
:1038D800113D0008BF390008253B0008833B00085C
:1038E800F93B0008653C0008113D00082B3C000826
:1038F8009B3C000877390008DFF8D88298F8003038
:103908001BB3B24B93F82531002B00F00A82022B2F
:1039180002D9032B10D004E2FD238DF830300CA817
:10392800002302218DF8313004F067F9012004F0FA
:1039380053F9C12809D0F4E10AF0AEF9002800F0E3
:10394800F08102E06A238DF81C304FF0000907ACC3
:103958004FF00108D6E190238DF81C3003238DF831
:103968001D304FF0000907AC4FF00208CAE19DF87E
:1039780068305A1E022A00F2B981944A82F8253129
:10398800E3E793F825313A70013B012BDFF84482D5
:103998000BD800238DF830308DF831300CA8012376
:1039A800022188F8003004F028F9002488F8004043
:1039B80088F80140C9E7DFF81C82DFF8109288F820
:1039C800002088F801209DF8683099F824219A424F
:1039D800C3467FF6C5AE3B7003240AF05DF9F0B12B
:1039E8007B4801210FF0DEFBC8B17A4B03931846E0
:1039F80002210FF0D7FB039B88B11B8849F20732DD
:103A080023F00801914200F0928149F20A32934270
:103A180000F08D8149F20B42934200F088816E4A92
:103A2800937811888DF82230ADF82010131D0DF110
:103A3800300E143218685968F446ACE803000833AD
:103A48009342E646F6D118681B79CCF80000152198
:103A58000CA88CF8043004F0D0F809A8082104F068
:103A68006BF900284CD0002309AA08A9985C595C76
:103A7800884245D10133032BF6D19DF827308BF8C6
:103A880002309DF828308BF801309DF829308BF8EA
:103A98000030504B1A884FF2103322F0200199421F
:103AA80011D04FF210439A420DD04FF290339A4200
:103AB80009D04FF650039A4205D002F5BA530F3396
:103AC8009BB2012B01D801230EE022F0080349F232
:103AD80007318B4207D049F20A339A4203D049F2A0
:103AE8000B439A420CD1022389F8253199F82531E4
:103AF80088F803304FF00009364C4FF0040801E114
:103B0800013C14F0FF047FF468AF88F8004088F89F
:103B18000140A1464FF004082E4C0AE12B4B93F8C4
:103B28002531032B40F0F0802C4B12241C7004F03C
:103B38002DF8002003F0D4FF072003F0D1FF0E205A
:103B480003F0CEFF204603F0CBFF142003F0C8FF9C
:103B5800002003F0C5FFAC2003F0C2FF882003F06B
:103B6800BFFF132003F0BCFF762003F0B9FF03F07A
:103B7800F5FF1B480AF000F8A9E0144B93F825312B
:103B8800012B40F0C1809DF86830164A8DF81C3032
:103B98005B001370144B00221A7004F0A5F828B9C2
:103BA8004FF0000907AC4FF00108C2E00F4B0CA81A
:103BB8001B88ADF83030022104F01FF8142004F0FF
:103BC8000BF83028ECD1C0E6881C0020080800203B
:103BD8007E1400207D140020A4990108C43B002015
:103BE800C53B00208C1C00208D1C0020BD990108BD
:103BF800984C9DF868302370974B93F82531002B2B
:103C080000F09F80022B02D9032B04D099E00CBF4F
:103C18000720032012E00AF0D7F80028C0D01422A9
:103C280017E08C4C9DF8683023708B4B93F8253146
:103C3800022B02D0032B07D083E0042004F0C2F843
:103C4800002878D10F227DE00AF0BEF80028A7D01E
:103C58001622824B1A700AF08FF8F1E77D4B83F831
:103C680000907D4B93F82531002B3FF46EAE022B6C
:103C780002D9032B07D068E604F036F800288FD065
:103C88000120142121E00AF09FF8002888D013228F
:103C980027E0704B83F800906F4B93F82531022B87
:103CA8000BD0032B17D0012B4FF0000907AC4FF0B6
:103CB80001080CBF02220F2258E504F015F800286D
:103CC8003FF46EAF052040F2DC5103F0CBFF002833
:103CD8003FF466AF39E60AF077F800283FF460AFA2
:103CE80015225E4B1A7009F0F3FFF0E74FF0000958
:103CF80007AC4FF00108092238E5594C4FF000098C
:103D08004FF009084A4631E54FF0000907AC4FF07B
:103D1800010802222AE54FF0010907ACC846002233
:103D280024E5002488F8004088F8014038E7032398
:103D3800DAE60F221AE594F800804FF000091AAC71
:103D4800E0E702224FF0000907AC4FF001080DE54B
:103D58000FF024FAFEF7FBB80C2803D141480FF006
:103D68001FFE49E00A2801D00D2864D13E4D3F4886
:103D78000FF016FE2846232113F045FF08B1401B1B
:103D8800206023687BB35A1EA95C202901D1134601
:103D9800F8E7354A23600021D154354B354ED3F826
:103DA8000080D6F80090304F484613F03AFF054699
:103DB8002A463846494613F03DFF2F4A20B97B5D15
:103DC80043445B785B0703D010369642E9D306E09C
:103DD800964204D2681CF3683844984702E02748A2
:103DE8000FF0DEFD0023204823600021302213F06D
:103DF800D5FE029B1B7853B309F0B0FEFDF7E6BF72
:103E08000C28ABD07F2804D1FDF7E0BF2F2B3DF65F
:103E1800DDAFA0F12002D2B25E2A3DF6D7AF13B9CA
:103E280020283DF4D3AF5A1C22600F4AD0540FF01B
:103E380041FCFDF7CBBF7F28E8D1013B0A4A104877
:103E480023600021D1540FF0ABFDFDF7BFBF5BB07D
:103E5800BDE8F08F851C002008080020C43B002026
:103E6800BCB80108CBB801083018002077C3010896
:103E780084030020A8B1010878B30108D6B8010866
:103E8800F2B801082DE9F04FA34FA44C3A6802F5A7
:103E98009C432DED028B20332360A14B1E7889B003
:103EA800D6B1A04909688A4240F20981013E1E70D4
:103EB80005E1DFF88C829C48D8F80030072D98BFC0
:103EC800595D9A4B88BF29461B689847032D09D925
:103ED80004EB45050136A8800BF068F9F5B2854278
:103EE800E7D320E0D8F8002005F1100302EB8303A4
:103EF80059889A880028EBD04FF47A73401A5843AF
:103F0800531A90FBF3F040F6C90300F57A70984213
:103F180005DC40F2EE239842B8BF184601E040F6AF
:103F2800CA0080B2D4E7824B824E1B68D6F8008064
:103F380042F2010A03EA0A0ABAFA8AFA4FEA5A1A54
:103F4800BAF1000F06D194F8293084F828307A4B5A
:103F58005A781A7094F828302BB1774B93F8009060
:103F680089F0010900E099460F23DFF8ECB184F8E5
:103F78002A3000250BF01AF9854267DA6B00B9F18F
:103F8800000F03D06D4A32F8150000E048466C4A2D
:103F9800DFF8C8C111684A8B82424FEA850E694A28
:103FA80002D8898B81421CD25CF80E005B4980459F
:103FB80001D2D05A19E0E8B20392029301910BF0B2
:103FC8000DF9032D029B039A0FDC01994FF0010EA6
:103FD80091F82AC00EFA05FE2CEA0E0E81F82AE0A6
:103FE80003E008F596714CF80E10BAF1000F28D1CD
:103FF80094F8BC100322B1FBF2F202EB42028A1AD7
:1040080003EB050E5EFA82F204EB4202908594F807
:10401800BD202AB9022913D9404A012182F8BD10CE
:10402800BBF800203BF8020C1044BBF802201044F7
:10403800454A80B2D05200B2032290FBF2F080B21F
:10404800404AD05201350BF1060B93E794F82A2029
:104058003E4BA2F10F014A424A4184F8D6206AB188
:104068003B4A1268520109D43268D9689A60521AD8
:10407800C82A1FD9012283F821201BE02E4A0121DA
:104088005170117032689968DA605B68521A9A4206
:1040980082BF2E4B002283F8212000250BF086F8E2
:1040A800854207DAE8B20BF099F8264B23F8150099
:1040B8000135F3E794F8BC30013384F8BC301C4B6D
:1040C8001A6812F4805F984605D0214B1B68DB07FD
:1040D80001D40DF019FC1A4B39681F683B7B002B83
:1040E8003ED0013B1748BA7B30F813301AB1C3F5FC
:1040F8003B6308339BB21BB2A3F57A73B3F57A7F9F
:10410800A8BF4FF47A7323EAE37307EE903A9FED62
:10411800117AF8EEE77A5CE07C3E00203C0900204A
:10412800B41E0020B01E0020883B0020EC000020B8
:10413800881E0020681E0020000000204009002082
:10414800841E00208C1E0020FA090020B81E0020C2
:10415800E81E002000007A446A090020B009002007
:10416800D8F80020150440D5D4F8D820AE4E8A1AC5
:10417800002A3ADB01F59C422032C6F8D820AB4A27
:104188005079AB4A32F81050A8B27D7B90FBF5F518
:1041980096F8DC00013000F00F0286F8DC2032448B
:1041A80082F8DD501A46A348185C01330244102BEC
:1041B80092B2F8D112B292FBF3F31BB2642BA8BFF0
:1041C800642323EAE37307EE903A9FED9B7AF8EEB7
:1041D800E77AC7EE877A994A9FED997A67EE877AE8
:1041E800FCEEE77A17EE903A1380D8F80030954F36
:1041F80013F4807F00F0FA80934BDFF850929942D5
:1042080005D999F8022012B9012289F8022099F8F3
:104218000220002A00F0EA808C4A8D4992F8215049
:104228003A78681E454245410868C0F38063C2F386
:10423800800B01938A462DB912F0080F0CBF002697
:10424800022600E0002699F82020052A00F2CA80FC
:10425800DFE802F0034C608594B1BBF1000F38D061
:10426800D4F8F000B4F8F41004F006F8012809D1E5
:104278007849794A09681268C988642000FB0122D4
:10428800C9F81020019B5BB1724A126812793AB1E1
:1042980010F0C6F9032289F820204FF47A7236E02C
:1042A800002D40F09F806C4AD9F810101068674ABA
:1042B80088420AD9029210F0B3F9029A032182F8CF
:1042C800201040F6B831D161BDE7012182F82010F5
:1042D800B9E7019B4FF4806013B10BF0DDFD01E0FD
:1042E8000BF0CAFD0022C9F810207BE0002D57D141
:1042F800584A1268127A012A02D010F091F9A2E7FE
:1043080010F08EF9032289F8202040F6B832C9F857
:104318001C2098E725B1052289F82020012000E01B
:104328002846BBF1000F0BD0D4F8F020118A4B4A75
:10433800118051809180474909684988D1800326B6
:10434800454A1168D9F81420914202D8BBF1000FF0
:1043580045D147F23052C9F81C20032221E03A78AF
:1043680042F002023A700DF0CFFA3B4AD9F81C101D
:1043780012680A44C9F81820042212E0364A9DB18E
:104388001168D9F8182091422CD9354A92781AB96F
:10439800DAF80020D10725D43A7822F002023A70E0
:1043A800052289F820204EE71268D9F81C100A4423
:1043B800C9F8182016E02749274A09681268C988E9
:1043C800642000FB0122C9F810204FF4806000220D
:1043D80089F8202089F803200BF04EFD33E70028E8
:1043E8007FF431AF16B1304603F09EFF1D4DB5F88E
:1043F800DE1005F5107003F03FFF82461748B5F848
:104408005032B0F90220029003F10B0191422BDBEC
:104418000B3B934228DCB0F90020914224DB934205
:10442800CCBF0023012320E03C090020E017002036
:10443800F0170020190A00200000C8429A13002033
:1044480000C07F44963E0020404B4C00B81E002020
:10445800E81E0020443E0020681E00208C1E00201C
:1044680000000020903600200023BAF1000F30D160
:10447800934A1268120106D5924AD2789AB93A78C4
:10448800560710D528E0904B904900221A605A60D0
:104498009A608F4BC1F800A00122C1F804A0C1F8AE
:1044A80008A01A700BE0884A884800211160516002
:1044B8009160874A00230360436083601370854BD3
:1044C80000221A605A600023C4F8F830C4F8FC309F
:1044D80004E07F4A002313707F4A13703B78580723
:1044E80036D5D8F80030D90632D57C4B1B78DA0699
:1044F8002ED47B4B9B7893B195F89532BAF1000F87
:1045080015D17BB1774B1A68D4F800319B1A002B70
:1045180008DA0DF0F9F9744B83F804A118E0BAF140
:10452800000F0DD1102003F0FFFE01230EE03BB178
:104538006C4A12684FF47A7101FB0323C4F8003106
:1045480094F8043123B103F0D7FE002384F8043132
:10455800002295F89412B5F85262B5F854E2134661
:10456800029830F912009B08B042C4BF63F07F0381
:10457800DBB201327045B8BF43F04003042AEFD1E3
:1045880094F8052158489A4205D190F80621F92A4D
:1045980004D8013200E0002280F8062184F80531B1
:1045A8004F4B514A9878464E994628BB3368DB07EB
:1045B8000AD582F80701BAF1000F1DD13B78DB0755
:1045C8001AD50CF0D7FF17E03B78580714D592F8A6
:1045D80028308BB13B4BDB7873B992F80731013344
:1045E800DBB2032B82F8073106D911B10DF08CF933
:1045F80002E0BAF1000FF9D094F80631DFF8E8A02C
:10460800142B40F0878099F802308BB19AF8053165
:104618005F2B0DD13B7803F0040303F0FF0B13B1BC
:104628000DF072F904E00B2003F07EFE8AF806B163
:104638003B7803F0040303F0FF01002B6AD194F8E0
:104648000531294A572B13D1284B1A684FF47A732E
:10465800B3FBF2F3C3EB431203EB8203244ADB0000
:104668001380D8F800301B0654D504F0E5FB51E060
:10467800D8F80000400717D55A2B15D192F8083101
:104688002BB1012382F8081182F8093142E092F82F
:104698000A3183F0010382F80A310BB10C2000E0E3
:1046A8000D2003F041FE35E05D2B00F0B4855B2B57
:1046B80000F0B3855E2B1DD1032000F0AFBD00BF15
:1046C800E81E0020B81E0020183E00209818002080
:1046D8008E190020C0180020A8180020DC12002025
:1046E80000000020681E00203C090020181F002040
:1046F8008C3E0020562B01D10BF0E2FC99F80230D9
:10470800002B00F0918594F805316F2B40F08C85D3
:104718000CF030FFD8F800305B0736D594F80A3132
:10472800B44A93B13B7858070FD5029BB3F90610EA
:10473800B5F85232994208DD336813F0010302BF1D
:104748003221A2F80E1182F80A313368D9030DD547
:1047580094F81021A74B2AB993F8082112B93222EC
:10476800A3F80E21012384F810310EE094F80831E3
:10477800A04A53B13B7803F0040303F0FF0123B9C7
:10478800012382F8081182F80931DFF888920023A2
:10479800336009F1500A99F8002099F8013019F8A6
:1047A800010C9A420BD2494603F02CFD38B119F896
:1047B800022C012303FA02F233681343336009F130
:1047C8000409D145E7D18C4B1B7843B18B4B8C4EF8
:1047D8001A6812F0020F994640F0E881DFE1894E2D
:1047E80006F15A093278737816F8010C9A4225D2E4
:1047F800314603F007FD08B3B37896F804E0824A1F
:1048080096F803A07B480C21013B01FB0E4103EB0A
:1048180043031344D1F818219A420FD0C1F8183134
:10482800002390F84421C1F81C31012303FA0EF348
:1048380022EA030381F814A180F8443106364E4574
:10484800D0D1724BD4F848611B68039394F8283090
:104858000493DFF8C4B100230193DBF800100029AA
:1048680000F0948191F80090B9F1000F00F08E816A
:10487800DBF80430039AD31A002B0CDB02F5FA7329
:10488800019ACBF804300123934094F8442122EA9A
:10489800030384F84431049B002B00F077811BF854
:1048A800042C4B780432D2B2002B40F03881029BA2
:1048B80033F91220564BB3F8503203F1C800824244
:1048C80002DD91F802A015E0C83B9A4203DA897824
:1048D800C1F1000A0EE0019A0123934094F84421A3
:1048E80022EA030384F84431039B03F5FA73CBF8F7
:1048F80004304BE194F84421019B1A41D20700F19E
:104908004581BAF1000FCCBF0220012003F046FD1B
:1049180009F1FF31374A132900F23081DFE811F03D
:104928001400250036004A0063007E009D00BB008D
:10493800D900E500F3002E014A0059007E009D00D1
:10494800BB009100AF00CD0096F80090D144B9F1BA
:10495800FA0FA8BF4FF0FA0929EAE979304686F834
:10496800009003F035FC012022E096F80190D14434
:10497800B9F1640FA8BF4FF0640929EAE979304614
:1049880086F8019003F024FC022011E096F80390C9
:10499800D144B9F1640FA8BF4FF0640929EAE97955
:1049A80086F803903046D2F84C1103F0B7FB032089
:1049B8004946A5E0717951446429A8BF642121EAD8
:1049C800E17171710D2003F077FCB9F10D0F00F062
:1049D800D580317951446429A8BF642121EAE17165
:1049E80031710E208CE0B179514481F30801B17125
:1049F800052085E03C090020953E0020E81E0020A7
:104A0800701E0020823A0020BF990108681E00200D
:104A180090360020333A0020540A0020D2F8500182
:104A2800059281785144C829A8BFC82121EAE171BB
:104A380081700F2003F040FCB9F10F0F059A00F0C8
:104A48009D80D2F8502151785144C829A8BFC82167
:104A580021EAE1715170122052E0D2F8500105921A
:104A6800017B5144C829A8BFC82121EAE17101731B
:104A7800102003F021FCB9F1100F059A7ED0D2F86E
:104A88005021D17A5144C829A8BFC82121EAE1712F
:104A9800D172132034E0D2F850010592817D51443F
:104AA800C829A8BFC82121EAE1718175112003F046
:104AB80003FCB9F1110F059A60D0D2F85021517D4D
:104AC8005144C829A8BFC82121EAE17151751420B1
:104AD80016E0D2F85021D1785144C829A8BFC8217E
:104AE80021EAE171D17009200AE0D2F85021517B06
:104AF8005144C829A8BFC82121EAE17151730A208D
:104B080003F0DAFB3AE0D2F85021D17D5144C829AC
:104B1800A8BFC82121EAE171D1750B20F0E7012B6C
:104B28002CD1029B887833F91230B3F5617F05DB0D
:104B380040F633029342A8BF134601E04FF4617375
:104B4800B9F10C0F1AD14FF4966292FBF0F0AF4A0C
:104B58001278A3F5617393FBF0F3DBB29A420DD0A0
:104B6800184605930BF0E2F9059B4846194603F0F1
:104B7800A3FB059B581CC0B203F010FC019A01234B
:104B8800934094F84421134384F84431019B013342
:104B9800042B01930BF10C0B7FF45FAE16E6D8F8EB
:104BA8000030DB050ED59A4BDB785BB1336898078C
:104BB80008D5984B1B8813F0010A08D101200BF087
:104BC8006BF904E001200BF057F9012300E0002302
:104BD800D9F8002051070BD553B101200BF04CF93F
:104BE8008C4B1B889A0706D402200BF055F902E07B
:104BF80002200BF041F933689B0609D4D9F800303C
:104C08001E0540F19A804FF480700BF045F998E04A
:104C1800814BDFF800A21B7813F0020F55D07F4BB1
:104C28001B78042B51D9D9F8003013F4007B0FD02E
:104C3800BAF80030D8063CD410200BF02DF920200B
:104C48000BF01AF97648011D04F04AF802232CE00B
:104C5800BAF8006006F01006B6B22EB110200BF0BC
:104C68000BF9012684F854B1D9F80030590514D548
:104C7800D4F858316B495A89B1F90030DFF8A8B136
:104C8800002BB8BF5B42934207DAB1F90230002B20
:104C9800B8BF5B429342C0F20883BAF800309A0664
:104CA80008D520200BF0E8F8002384F854310126B9
:104CB80000E0002694F86431BBB90E2003F034FB01
:104CC800594B012283F864210FE0BAF8003003F051
:104CD8003003002B92D010200BF0CEF820200BF0E0
:104CE800CBF8002384F8543101E0002E86D04F4AD7
:104CF800002002F1280E02F150064D4B002123F846
:104D080010104C4B516023F810100433CEF80410E7
:104D180023F81010002313609360CEF80030CEF80B
:104D2800083033607160B36014320EF1140E14361B
:104D380000287FF463AF0120DFE74FF480700BF0A9
:104D48009BF83D4B5A79082A1E4601D00E2A02D1FB
:104D580040200BF091F8D8F800305B0519D596F88B
:104D6800D4321BB93B7813F0040F03E0D9F80030B4
:104D780013F4002F09D0314B00221A703C200EF09A
:104D8800D9F930B10AF040FBF8E70BF087FE0EF0D6
:104D9800E1F8012384F8E831D4F848E1029BBEF831
:104DA8000A10B3F906208A420FDBB2F5FA6F9EF8B3
:104DB8000740BDBF531A6343A1F5FA64C4F1640404
:104DC800BCBF93FBF4F4643400E0642495F8223209
:104DD800019395F82332029395F9D831B5F85082AA
:104DE8009BB20393164B1E680021164B33F91190A2
:104DF800C8EB090303F2F31540F2E63085424FEAA7
:104E0800410A21D8002BB8BF5B421FE0801E00205A
:104E1800B81E0020E41E0020DC120020E212002050
:104E28009C130020821800203C090020A40A0020BE
:104E38008E3E00201C0B0020903600208D3B002069
:104E4800681800208C1E00204FF4FA7302294FF0D6
:104E5800640029D0019D1DB1AB42CCBF5B1B002370
:104E6800B94D93FBF0F76FF0630B35F817C00BFBE8
:104E7800073B013735F917500FFA8CF7ED1BB34F85
:104E880005FB0BF595FBF0F5654427F80A500EEB8A
:104E980001052D796B43AE4D93FBF5F364339BB25B
:104EA800634393FBF0F02CE0029D1DB1AB42CCBFF5
:104EB8005B1B0023A74D93FBF0F06FF0630C0CFB1A
:104EC800003B05EB400705EB4000B7F9EA71B0F984
:104ED800EC01C01B00FB0BFBBDF80C009BFBFCFBB3
:104EE800C7EB0B0B1BFB00FB9848A0F804B09EF81F
:104EF8000600002BB8BF5B424343954893FBF0F094
:104F080064307378944F6425434393FBF5F37B54E3
:104F1800924FF37A434393FBF5F37B54737D8B4FA6
:104F280058438F4B90FBF5F0022958548D4B09D10B
:104F3800C1459D7009DB8C4B8C4C186810F480506F
:104F48000FD11CE0C1455C5404DA37F80A305B42E3
:104F580027F80A300131032906F101067FF445AF2D
:104F6800E9E7B2F57A7F05DBB2F5FA6FA8BF4FF42F
:104F7800FA6201E04FF47A72A2F57A7212E0B4F89C
:104F880052128A4205DBB2F5FA6FA8BF4FF4FA62F3
:104F980000E00A46521A4FF47A735A43C1F5FA618F
:104FA800B2FBF1F2DFF8E8E16FF06306642392FBED
:104FB800F3F53EF8151006FB052201350EB23EF951
:104FC8001550AD1B6A4392FBF3F30B449BB2FB8075
:104FD800C8B1674A1268950015D5664AD27892B961
:104FE800B4F85012A3F57A72C1F5FA6000B212B2A1
:104FF8004FF47A73120392FBF3F202FB00F3534A65
:1050080001EB2333D3805C4B1D8805F04005ADB21E
:10501800D5B35A4BDFED5A7AB3F904300A2293FB21
:10502800F2F34C4AB2F8FC219B1A1BB208EE103A74
:10503800B8EEC88A28EE278AB0EE480A0AF014FFAC
:10504800F0EE408AB0EE480A0AF0ADFEB7F9023039
:1050580006EE903AB7F90030F8EEE66A07EE903AB5
:1050680020EE667AF8EEE77AA7EEA87A67EE807AFD
:10507800BDEEC77AE6EEA87A17EE103AFDEEE77AAB
:105088003B8017EE903A7B8094F85732002B50D033
:10509800002D4ED12F4C3B4D94F8FE219A4215D04D
:1050A80007EE903A9FED368A84F8FE31F8EEE77AFB
:1050B80027EE888AB0EE480A0AF0D6FE85ED010A86
:1050C800B0EE480A0AF06FFE84ED800AB7F90030A6
:1050D800D4ED805A95ED016A1D4A07EE903AB7F96A
:1050E800043006EE903AF8EEE66AF8EEE77A25EE36
:1050F800E67AA7EE867A67EEA57ABDEEC77AE6EE7F
:10510800867A17EE103AB3F5FA7FA8BF4FF4FA7310
:105118009342FDEEE77AB8BF13463B8017EE903A0C
:10512800B3F5FA7FA8BF4FF4FA739342B8BF13469A
:10513800BB80154B154A197811F0040F2AD0136853
:1051480092881A855CE000BFF614002082180020BF
:105158000CFEFFFF3C090020C8180020340B00207B
:1051680084190020C4190020881E002090360020D1
:10517800E81E0020B81E0020E41E0020B8180020F9
:1051880035FA8E3C00000020963E00205036002064
:10519800DE1400205448006810F0010F534802D074
:1051A80090F8044214B141F001011970504909788E
:1051B8000C075EBF197821F001011970B0F80C11C5
:1051C80019B14C490968890706D44B49098819B9A6
:1051D8004A490988642907D91169928A0A851A787F
:1051E80022F001021A700BE01B7845491069948A75
:1051F800846113F0010F93898A6814BF9361138542
:10520800404B9B68002B69D03F4809B0BDEC028B2E
:10521800BDE8F04F1847012000E002200138C0B275
:105228000AF03CFFFFF776BA94F80531972B06D1C0
:105238002E4B4FF4C872A3F80C21FFF76BBAA72BBB
:1052480006D12B4A137843F004031370FFF762BAB0
:105258000022BB2B079201D1022303E0B72B04D114
:105268004FF6FE73ADF81E300AE0BE2B01D10223C3
:1052780004E0BD2B7FF44EAA4FF6FE73ADF81C3048
:10528800BDF81C20B5F8F0311344A5F8F031BDF88D
:105298001E20B5F8F2311344A5F8F2310AF010FFD8
:1052A800002384F80631FFF735BABAF800309B06B8
:1052B8003FF500AD20200AF0EFFD144B0BF5AE7062
:1052C8001A685B68CBF85C210BF5B0710126CBF846
:1052D800603103F005FD8BF85461EBE409B0BDECD7
:1052E800028BBDE8F08F00BFE81E00203C090020BB
:1052F800DC120020701E00208C3E00206E1E002054
:1053080050360020303E0020CC120020E41200204D
:1053180010F80A3C0133DBB20A2B84BF10F8131CC7
:10532800044A00F80A3C82BF002322F8113000F832
:105338000A3C7047941D0020334A136C9068194446
:10534800081A40F68C23984270B513469160D060D5
:1053580051603BD9127893F945108A4210460BD117
:10536800111F082908D893F84610182901D80131C7
:1053780003E083F8442002E0002183F8461093F903
:1053880044402149A24219D191F84740B4B10C31A7
:105398000024944206DA1D4D51F8046F25F8146074
:1053A8000134F6E70C2805D01849002421F81040EC
:1053B8000130F7E7164801780131017083F845207C
:1053C800002201211A7083F8471070BD92F8471027
:1053D800C9B1A0F2EF2440F2DA518C4208D8117812
:1053E8000B2905D80B1D0131117042F8230070BD3F
:1053F800002283F84720074B03F13002002143F8CD
:10540800041F9342FAD170BD20040020941D00208F
:10541800BE2200202C040020024A136C01331944D8
:105428001164704720040020A1F57A7107EE901AE4
:105438009FED0A7A0A4BF8EEE77A53F82030C7EE68
:10544800877A82B01A68FCEEE77ACDED017ABDF86A
:1054580004303C33136002B0704700BFCA54854023
:10546800801A0020024B53F820301B6819607047DF
:10547800801A0020034B53F820301B6801EB4101D0
:1054880019607047801A0020024B53F820301B68BF
:1054980019607047801A0020064B53F820301A68AC
:1054A8001B89A1F57A7159434FF47A7391FBF3F193
:1054B80011607047801A0020F0B5046D8668236873
:1054C80023F0010323608379054613F0020F407926
:1054D8000CBF4FF0000E4FF4005E13F0040F14BF22
:1054E8004FF48067002710F0010F14BF042100213A
:1054F8008307206820F001002060626822F440528F
:105508004EEA02026260226822F4B05323F00C03D0
:1055180048BF41F008013B430B432360A36895B0A3
:1055280023F44073A360684604F0E2FE284B9C42D3
:1055380001D10C9B0EE0274B9C4201D10D9B09E049
:10554800254B9C4201D10E9B04E0244B9C420CBF8E
:105558000F9B109B2268A879170448BF5B00B3FB18
:10556800F6F206FB1233B3EB560F236828BF01325D
:105578001E0441BF4FF6F073C2F34201134041EAE3
:1055880003026B7992B213F0020FA28100F00101BD
:1055980014BF4FF400320022DC0748BF42F48032C7
:1055A8002B6D11B159680A4302E0596821EA0202D9
:1055B8005A609A6801074CBF42F0080222F00802BC
:1055C8009A601A6842F001021A6015B0F0BD00BF77
:1055D800003801400044004000480040004C0040B2
:1055E8002DE9F0471E46A34B8CB098428946904659
:1055F8009DF8505040F089809F4BA04A1A60A04AFD
:105608005A6102F580729A614FF48072DA601A6109
:105618009C4A5A63A2F54842203ADA6404329A64F2
:10562800C3F808801865984B9A6942F480429A61D9
:105638005A6942F001025A6102238DF808300323A7
:1056480015F0010A8DF809304FF000038DF80A3083
:1056580014BF022301232C078DF80B3017D58B4C70
:10566800012701978AEA07038DF80A30236A23F095
:105678000F032362236A43F007032362204601A92C
:1056880004F0A4FFBAF1000F23D1A76121E0B0070D
:105698000ED50CA9012341F82C3D7C48036A23F060
:1056A8000F030362036A43F00703036204F08EFFEB
:1056B800F1070ED50CA9022341F82C3D7348036A63
:1056C80023F0F0030362036A43F07003036204F0FB
:1056D8007DFF01240E23002768468DF800308DF8E1
:1056E80001408DF803408DF802700DF02DFA252346
:1056F80068468DF801408DF803408DF800308DF82C
:1057080002705D4C0DF020FA01E1614B984270D1B6
:10571800604B5A4A1A604FF48072DA601A615E4A26
:105728005A6102F580729A61574AC3F80880186571
:10573800D36943F40033D36102238DF8083003237F
:1057480015F0010A8DF809304FF000038DF80A3082
:1057580014BF022301232A078DF80B3017D54F4CAD
:10576800202701978AF001038DF80A30236A23F471
:1057780070032362236A43F4E0032362204601A9ED
:1057880004F024FFBAF1000F23D1A76121E0B30789
:105798000ED50CA9202341F82C3D4048036A23F478
:1057A80070030362036A43F4E003036204F00EFF2C
:1057B800F7070ED50CA9402341F82C3D3748036A5A
:1057C80023F070630362036A43F0E063036204F04A
:1057D800FDFE26238DF800300022012368468DF84F
:1057E80001308DF802208DF803302A4C0DF0ACF909
:1057F8008DE02B4B984240F00B812A4B1F4A1A60D0
:10580800294A5A614FF480773A449A611E4AC3F88C
:105818000880DF601F611865D36943F48023D36172
:1058280002238DF80830032315F0010A8DF809309A
:105838004FF000038DF80A3014BF022301232C0710
:105848008DF80B3032D5154C01978AF001038DF88D
:105858000A30636A23F00F036362636A43F0070345
:105868006362204601A904F0B1FEBAF1000F3FD1EE
:10587800A7613DE0003801409C3C0020FC990108EC
:10588800440B002044000240001002400010004871
:1058980000440040483C0020440D0020000C004813
:1058A80000480040F43B0020440F0020B0070DD50D
:1058B8000CA9594841F82C7D436A23F00F03436231
:1058C800436A43F00703436204F080FEF1070FD5F3
:1058D8000CA94FF4007341F82C3D4F48436A23F05C
:1058E800F0034362436A43F07003436204F06EFEC0
:1058F80027238DF800300022012368468DF80130F7
:105908008DF802208DF803300DF01EF9434CC4F8D1
:105918002C900027012384F844302762E761A762AE
:1059280067626671C4F80880A5712046FFF7C4FD58
:10593800F20734D5236B002B2AD001A804F034FCDD
:10594800E36C01934FF480530A9380230693E36832
:10595800ADF8103020230993206B636902930B97ED
:10596800059707970897039704F049FC01A9206B4E
:1059780004F027FC236B216D1A6842F001021A60BB
:105988008A6842F040028A605B689BB2236406E042
:10599800236D20221A621A6842F020021A60B307A7
:1059A8002FD5636B43B301A804F0FEFBA36C0193EE
:1059B8004FF480530A93802306932369ADF810307F
:1059C80000251023606B03930B95059507950895A3
:1059D800099504F014FC606B01A904F0F2FB636BF9
:1059E8001A6842F002021A60226D5D605D60936879
:1059F80043F08003936004E0226D136843F0800352
:105A08001360226D136843F001031360204600E021
:105A180000200CB0BDE8F087000C0048F43B0020E3
:105A28003D4B1B78012B30B514BF00240324B1B9BA
:105A3800036A23F0010303628169036A21F0F30119
:105A480023F00A0341F0010142F001021A4341EA3E
:105A5800041181610262836923F00C031BE00429AD
:105A68001DD1016A4FF6EF730B4003628169056A25
:105A7800120121F473414FF65F7342F0100241F4B2
:105A880080712B4092B2134341EA04318161036271
:105A9800836923F4406383618369836130BD082986
:105AA800016A1AD14FF6FF630B400362C169036AAA
:105AB8009BB289B223F4206343F4807321F0F3018D
:105AC80043EA022241F0010192B241EA0411C161A4
